:1000000000308A00CD2C0000FF00030E8301A10008
:100010007F08A0000A08A8008A01A00E0408A20018
:100020007708A3007808A4007908A5007A08A6003C
:100030007B08A700831383128C308400801E222843
:100040008C1A5828220884002308F7002408F80096
:100050002508F9002608FA002708FB0028088A006E
:10006000210E8300FF0E7F0E09000A108A100A116C
:1000700082074534523452344F34203441346F3483
:10008000203461346C346F3463346134723420341E
:100090006D3465346D346F347234693461340034D6
:1000A0005E08840083135F188317600880000034A3
:1000B0000F30D4002A08D6002908D500D508031D22
:1000C0006428D60803194729550884008313561855
:1000D00083170008DB00DB1B3829550884008313D5
:1000E0005618831754080002031C38295508840049
:1000F0008313561883170008FA01D9007A08DA002A
:1001000003305407DA08031D8A28590203192929E4
:10011000031C292954085902DB005A08DC0000306E
:10012000031C0130DC0203305B02DD005C08DE00F2
:100130000030031C0130DE0203305507DF00560893
:10014000E0000318E00A54085F07E1006008E200DD
:100150000318E20A5D08E3006208E5006108E400B4
:100160006508E7006408E6006608840083136718E2
:1001700083176308800001306607840083136718C3
:100180008317840A8001840380016608F8006708E9
:10019000F9007908D8007808D7005608DC0055081F
:1001A000DB005808DE005708DD0001305B078400E3
:1001B00083135C188317840A0008E0008403000896
:1001C000DF00DF08031DF228E008031DF2280130DC
:1001D0005D07840083135E188317840A80018403FB
:1001E0008001122901305D07F8005E08FA0003184B
:1001F000FA0A7A08E00001305B07840083135C1878
:100200008317840A0008FA0084030008E1007808D4
:100210008400831360188317840A7A08800084039B
:100220006108800001305B07840083135C1883172A
:10023000840A5E08800084035D08800080305407D3
:10024000DB005608DF005508DE005B08E0005020A8
:10025000372980305907DB005A08DC000318DC0A14
:100260005608DF005508DE005B08E00050204729F3
:10027000013055078400831356188317840A000839
:10028000FA0084030008D5007A08D6005E28D50855
:10029000031D5229D608031D52290030F800F90029
:1002A0005C295C2903305507F8005608FA0003184A
:1002B000FA0A7A08F9005C297908D1007808D00098
:1002C000D008031D7429D108031D7429D4015408D2
:1002D0003520D40AF70077080C1E6C2999001630D7
:1002E0005402031D672900280F3050078400831330
:1002F000511883178001D30153080D3C031CDE29DC
:10030000D701D601D501D401D708031DA429D608E9
:10031000031DA4295508753C031CA429031D942919
:1003200054082F3C031CA4298C1E9B298C1E962943
:100330001A08F800A6290130D4070318D50A0319B2
:10034000D60A0319D70A8429FF30F8007808D200AA
:10035000520FB1295008840083135118831780016C
:10036000DE29D3080319D42952080A3C031DD429D5
:10037000013053025007840083135118831700087B
:100380000D3C031DD42953085007840083135118D2
:1003900083175208800001305307500784008313ED
:1003A000511883178001DE295308500784008313F6
:1003B0005118831752088000D30A7C29D4015408AD
:1003C000953C031CED298C1EEB29D4018C1EE629DB
:1003D0001A08D500EC29D40ADF295008F800510882
:1003E000F9007908CF007808CE004E088400831306
:1003F0004F1883170008433C031D4C2A01304E0759
:10040000840083134F18831700084D3C031D4C2AAA
:1004100002304E07840083134F1883170008443CB2
:10042000031D4C2A03304E07840083134F18831793
:100430000008533A031D4B2A4F08D1004E08D00044
:10044000D2015208033C031C4A2A0430500784009E
:10045000831351188317303000025202031D482ABB
:100460000530500784008313511883170008463C59
:10047000031D412A0310520D2B3E8400831380017B
:10048000482A0310520D2B3E84008313FF30800056
:10049000D20A212A4C2A4C2A4F08D1004E08D000FB
:1004A000D008031D582AD108031D582A542B802A2E
:1004B00003305002D2005108D3000030031C013039
:1004C000D302520884008313531883170008D60000
:1004D000D61F7D2A52088400831353188317803057
:1004E0000002D400D5015308DF005208DE00540892
:1004F000E0005020D101D001802AD101D001542B3D
:100500002A08D7002908D600D608031D8A2AD7084A
:100510000319542B560884008313571883170008B7
:10052000DE00DE1B452B5608840083135718831703
:100530000008FA01DA007A08DB000130560784006F
:10054000831357188317840A0008D900840300080E
:10055000D800580884008313591883170008DE0058
:10056000DE1B362B5A085607DF005708E0005B08F1
:1005700003185B0FE00703305F07F8006008FA001C
:100580000318FA0A78085802031D362B7A08590214
:10059000031D362B5808840083135918831700084D
:1005A000FA01DC007A08DD0003305C07F8005D0822
:1005B000FA000318FA0A7808DA077A0803187A0F9B
:1005C000DB075908DF005808DE002A08E100290887
:1005D000E000013060078400831361188317840AE8
:1005E0000008E30084030008E2005E086202031DC5
:1005F000FD2A5F08630203190C2B01306007840099
:10060000831361188317840A0008FA008403000822
:10061000E0007A08E100E92A01306007F80061088B
:10062000FA000318FA0A7A08E30001305E07840032
:1006300083135F188317840A0008FA0084030008F4
:10064000E40078088400831363188317840A7A0807
:100650008000840364088000DF01DE015708DF00AA
:100660005608DE005A08E0005020442B013056079F
:100670008400831357188317840A0008FA00840340
:100680000008D6007A08D700532B013056078400A3
:10069000831357188317840A0008FA00840300089C
:1006A000D6007A08D700842A8C128A112228831651
:1006B0000108C73908388100831290010030F80022
:1006C0009200003083169200073083129F00831639
:1006D00005080330F700F70B6B2B83121F080C1370
:1006E00083169F01F0306500FF3066008312AB0176
:1006F000AD01AF01B1012830AC002930AE002A3085
:10070000B0002B30B200B301B501B701B9012C30F4
:10071000B4002D30B6002E30B8002F30BA00BB0127
:100720004B30BD009630BF00E130C100BC01BE01BE
:10073000C001C201F42C48080739F700480CF80042
:10074000F80CF80C1F30F80578084A07840083136A
:100750004B188317F801F80AF70AAF2BF80DF70BBF
:10076000AE2BC9080319B72B78088004BA2BF809F7
:10077000780880050034C401C4014408033C031C0C
:10078000F42B0310440D2B3E84008313000FDE2B4B
:100790000310440D013E2B3E840083130008C60065
:1007A000C8000130C900CB01CA019B234608C8001C
:1007B000C901CB018030CA009B23F22B0310440DEA
:1007C000013E2B3E840083130008C600C800C90107
:1007D000CB01CA019B234608C800C901CB01803068
:1007E000CA009B23C40ABD2BF52C48080739F70023
:1007F000480CF800F80CF80C1F30F8057808490789
:10080000840083134A1883170008F800F70A092C9C
:10081000F80CF70B082C342CC401C4014408033C29
:10082000031C562C0310440D083EC500C6010318D6
:10083000C60A01304507F8004608FA000318FA0A0C
:1008400078082B3E840083137A1883170008C700AA
:10085000C8000130C900CB018030CA009B23470883
:10086000C800CA01C901F52B7818462C0310440DA5
:10087000083EC500C6010318C60A2B304507840090
:10088000831346188317FF308000542C0310440D47
:10089000083EC500C6010318C60A2B304507840070
:1008A0008313461883178001C40A0E2CF62C53308C
:1008B0000C1E582C990044300C1E5C2C9900C4016D
:1008C0004408033C031C762C0310440D2B3E84008B
:1008D0008313000F702C31300C1E6C2C9900742C7B
:1008E00030300C1E712C9900C40A602C0D300C1E87
:1008F000772C99000A300C1E7B2C9900F72C453080
:100900000C1E802C990044300C1E842C9900C401CC
:100910004408033C031CA62C0310440D083EC500EC
:10092000C6010318C60A2B304507840083134618F6
:100930008317000FA02C31300C1E9C2C9900A42C86
:1009400030300C1EA12C9900C40A882C0D300C1ECE
:10095000A72C99000A300C1EAB2C9900F82CC30868
:100960000319B82C8316061083120614C301BE2C7B
:1009700083160610831206100130C300F92CC4013F
:10098000440FC32CCC2CC5014508DB3C031CCA2CEE
:10099000C50AC42CC40AC02CFA2CAA016A30A900CA
:1009A0000A30EA00EC01A030EB004D308316A000C5
:1009B0000130A2002030A1002D3083120317A000C7
:1009C000A201A1010313840183131F308305831641
:1009D0008E1519309900A630980090308312980037
:1009E00007309F00C301572BBB2B0C2C572C7F2C9F
:1009F000AF2CBF2C83168C16C03083128B04F42CC2
:020A0000630091
:02400E00D83F99
:00000001FF
;PIC16F628A
